{
  "_format": "hh-sol-artifact-1",
  "contractName": "FundraiserFactory",
  "sourceName": "contracts/FundraiserFactory.sol",
  "abi": [
    {
      "anonymous": false,
      "inputs": [
        {
          "indexed": true,
          "internalType": "contract Fundraiser",
          "name": "fundraiser",
          "type": "address"
        },
        {
          "indexed": true,
          "internalType": "address",
          "name": "owner",
          "type": "address"
        }
      ],
      "name": "FundraiserCreated",
      "type": "event"
    },
    {
      "inputs": [
        {
          "internalType": "string",
          "name": "_name",
          "type": "string"
        },
        {
          "internalType": "string",
          "name": "_image",
          "type": "string"
        },
        {
          "internalType": "string",
          "name": "_description",
          "type": "string"
        },
        {
          "internalType": "address payable",
          "name": "_beneficiary",
          "type": "address"
        }
      ],
      "name": "createFundraiser",
      "outputs": [],
      "stateMutability": "nonpayable",
      "type": "function"
    },
    {
      "inputs": [],
      "name": "fundraiserCount",
      "outputs": [
        {
          "internalType": "uint256",
          "name": "",
          "type": "uint256"
        }
      ],
      "stateMutability": "view",
      "type": "function"
    },
    {
      "inputs": [
        {
          "internalType": "uint256",
          "name": "limit",
          "type": "uint256"
        },
        {
          "internalType": "uint256",
          "name": "offset",
          "type": "uint256"
        }
      ],
      "name": "fundraisers",
      "outputs": [
        {
          "internalType": "contract Fundraiser[]",
          "name": "coll",
          "type": "address[]"
        }
      ],
      "stateMutability": "view",
      "type": "function"
    }
  ],
  "bytecode": "0x608060405234801561001057600080fd5b50612645806100206000396000f3fe60806040523480156200001157600080fd5b5060043610620000465760003560e01c806337cd0940146200004b578063704914f8146200006d578063cbc76dad14620000a3575b600080fd5b62000055620000c3565b6040516200006491906200077e565b60405180910390f35b6200008b600480360381019062000085919062000555565b620000cf565b6040516200009a9190620006c6565b60405180910390f35b620000c16004803603810190620000bb91906200049e565b620002e7565b005b60008080549050905090565b6060620000db620000c3565b82111562000120576040517f08c379a000000000000000000000000000000000000000000000000000000000815260040162000117906200075c565b60405180910390fd5b6000826200012d620000c3565b620001399190620008ac565b90508381106200014a57836200014c565b805b9050600a81106200015f57600a62000161565b805b90508067ffffffffffffffff811115620001a4577f4e487b7100000000000000000000000000000000000000000000000000000000600052604160045260246000fd5b604051908082528060200260200182016040528015620001d35781602001602082028036833780820191505090505b50915060005b81811015620002df5760008482620001f291906200084f565b815481106200022a577f4e487b7100000000000000000000000000000000000000000000000000000000600052603260045260246000fd5b9060005260206000200160009054906101000a900473ffffffffffffffffffffffffffffffffffffffff168382815181106200028f577f4e487b7100000000000000000000000000000000000000000000000000000000600052603260045260246000fd5b602002602001019073ffffffffffffffffffffffffffffffffffffffff16908173ffffffffffffffffffffffffffffffffffffffff16815250508080620002d690620009dc565b915050620001d9565b505092915050565b60008484848433604051620002fc90620003f0565b6200030c959493929190620006ea565b604051809103906000f08015801562000329573d6000803e3d6000fd5b5090506000819080600181540180825580915050600190039060005260206000200160009091909190916101000a81548173ffffffffffffffffffffffffffffffffffffffff021916908373ffffffffffffffffffffffffffffffffffffffff1602179055503373ffffffffffffffffffffffffffffffffffffffff168173ffffffffffffffffffffffffffffffffffffffff167fa2398daac0c8053a1e3c0280916c2ec6bc884f0959c27e639a4db829b7eabfb160405160405180910390a35050505050565b611b198062000af783390190565b6000620004156200040f84620007c4565b6200079b565b9050828152602081018484840111156200042e57600080fd5b6200043b84828562000961565b509392505050565b600081359050620004548162000ac2565b92915050565b600082601f8301126200046c57600080fd5b81356200047e848260208601620003fe565b91505092915050565b600081359050620004988162000adc565b92915050565b60008060008060808587031215620004b557600080fd5b600085013567ffffffffffffffff811115620004d057600080fd5b620004de878288016200045a565b945050602085013567ffffffffffffffff811115620004fc57600080fd5b6200050a878288016200045a565b935050604085013567ffffffffffffffff8111156200052857600080fd5b62000536878288016200045a565b9250506060620005498782880162000443565b91505092959194509250565b600080604083850312156200056957600080fd5b6000620005798582860162000487565b92505060206200058c8582860162000487565b9150509250929050565b6000620005a483836200063c565b60208301905092915050565b620005bb81620008fb565b82525050565b620005cc81620008e7565b82525050565b6000620005df826200080a565b620005eb81856200082d565b9350620005f883620007fa565b8060005b838110156200062f57815162000613888262000596565b9750620006208362000820565b925050600181019050620005fc565b5085935050505092915050565b620006478162000939565b82525050565b60006200065a8262000815565b6200066681856200083e565b93506200067881856020860162000970565b620006838162000a88565b840191505092915050565b60006200069d6014836200083e565b9150620006aa8262000a99565b602082019050919050565b620006c0816200092f565b82525050565b60006020820190508181036000830152620006e28184620005d2565b905092915050565b600060a08201905081810360008301526200070681886200064d565b905081810360208301526200071c81876200064d565b905081810360408301526200073281866200064d565b9050620007436060830185620005b0565b620007526080830184620005c1565b9695505050505050565b6000602082019050818103600083015262000777816200068e565b9050919050565b6000602082019050620007956000830184620006b5565b92915050565b6000620007a7620007ba565b9050620007b58282620009a6565b919050565b6000604051905090565b600067ffffffffffffffff821115620007e257620007e162000a59565b5b620007ed8262000a88565b9050602081019050919050565b6000819050602082019050919050565b600081519050919050565b600081519050919050565b6000602082019050919050565b600082825260208201905092915050565b600082825260208201905092915050565b60006200085c826200092f565b915062000869836200092f565b9250827fffffffffffffffffffffffffffffffffffffffffffffffffffffffffffffffff03821115620008a157620008a062000a2a565b5b828201905092915050565b6000620008b9826200092f565b9150620008c6836200092f565b925082821015620008dc57620008db62000a2a565b5b828203905092915050565b6000620008f4826200090f565b9050919050565b600062000908826200090f565b9050919050565b600073ffffffffffffffffffffffffffffffffffffffff82169050919050565b6000819050919050565b600062000946826200094d565b9050919050565b60006200095a826200090f565b9050919050565b82818337600083830152505050565b60005b838110156200099057808201518184015260208101905062000973565b83811115620009a0576000848401525b50505050565b620009b18262000a88565b810181811067ffffffffffffffff82111715620009d357620009d262000a59565b5b80604052505050565b6000620009e9826200092f565b91507fffffffffffffffffffffffffffffffffffffffffffffffffffffffffffffffff82141562000a1f5762000a1e62000a2a565b5b600182019050919050565b7f4e487b7100000000000000000000000000000000000000000000000000000000600052601160045260246000fd5b7f4e487b7100000000000000000000000000000000000000000000000000000000600052604160045260246000fd5b6000601f19601f8301169050919050565b7f6f6666736574206f7574206f6620626f756e6473000000000000000000000000600082015250565b62000acd81620008fb565b811462000ad957600080fd5b50565b62000ae7816200092f565b811462000af357600080fd5b5056fe60806040523480156200001157600080fd5b5060405162001b1938038062001b1983398181016040528101906200003791906200034b565b620000576200004b6200012f60201b60201c565b6200013760201b60201c565b84600290805190602001906200006f929190620001fb565b50836003908051906020019062000088929190620001fb565b508260049080519060200190620000a1929190620001fb565b5081600560006101000a81548173ffffffffffffffffffffffffffffffffffffffff021916908373ffffffffffffffffffffffffffffffffffffffff16021790555080600660006101000a81548173ffffffffffffffffffffffffffffffffffffffff021916908373ffffffffffffffffffffffffffffffffffffffff160217905550505050505062000604565b600033905090565b60008060009054906101000a900473ffffffffffffffffffffffffffffffffffffffff169050816000806101000a81548173ffffffffffffffffffffffffffffffffffffffff021916908373ffffffffffffffffffffffffffffffffffffffff1602179055508173ffffffffffffffffffffffffffffffffffffffff168173ffffffffffffffffffffffffffffffffffffffff167f8be0079c531659141344cd1fd0a4f28419497f9722a3daafe3b4186f6b6457e060405160405180910390a35050565b8280546200020990620004f5565b90600052602060002090601f0160209004810192826200022d576000855562000279565b82601f106200024857805160ff191683800117855562000279565b8280016001018555821562000279579182015b82811115620002785782518255916020019190600101906200025b565b5b5090506200028891906200028c565b5090565b5b80821115620002a75760008160009055506001016200028d565b5090565b6000620002c2620002bc8462000441565b62000418565b905082815260208101848484011115620002db57600080fd5b620002e8848285620004bf565b509392505050565b6000815190506200030181620005d0565b92915050565b6000815190506200031881620005ea565b92915050565b600082601f8301126200033057600080fd5b815162000342848260208601620002ab565b91505092915050565b600080600080600060a086880312156200036457600080fd5b600086015167ffffffffffffffff8111156200037f57600080fd5b6200038d888289016200031e565b955050602086015167ffffffffffffffff811115620003ab57600080fd5b620003b9888289016200031e565b945050604086015167ffffffffffffffff811115620003d757600080fd5b620003e5888289016200031e565b9350506060620003f88882890162000307565b92505060806200040b88828901620002f0565b9150509295509295909350565b60006200042462000437565b90506200043282826200052b565b919050565b6000604051905090565b600067ffffffffffffffff8211156200045f576200045e62000590565b5b6200046a82620005bf565b9050602081019050919050565b600062000484826200049f565b9050919050565b600062000498826200049f565b9050919050565b600073ffffffffffffffffffffffffffffffffffffffff82169050919050565b60005b83811015620004df578082015181840152602081019050620004c2565b83811115620004ef576000848401525b50505050565b600060028204905060018216806200050e57607f821691505b6020821081141562000525576200052462000561565b5b50919050565b6200053682620005bf565b810181811067ffffffffffffffff8211171562000558576200055762000590565b5b80604052505050565b7f4e487b7100000000000000000000000000000000000000000000000000000000600052602260045260246000fd5b7f4e487b7100000000000000000000000000000000000000000000000000000000600052604160045260246000fd5b6000601f19601f8301169050919050565b620005db8162000477565b8114620005e757600080fd5b50565b620005f5816200048b565b81146200060157600080fd5b50565b61150580620006146000396000f3fe6080604052600436106100ec5760003560e01c806350ae51be1161008a578063de2ed89311610059578063de2ed893146102dc578063ed88c68e14610307578063f2fde38b14610311578063f3ccaac01461033a57610126565b806350ae51be14610243578063715018a61461026f5780637284e416146102865780638da5cb5b146102b157610126565b80631c31f710116100c65780631c31f710146101ad5780631f522595146101d657806338af3eed146102015780633ccfd60b1461022c57610126565b80630180b97c1461012b57806306fdde03146101565780631a57f7b41461018157610126565b36610126576101063460075461036590919063ffffffff16565b6007819055506008600081548092919061011f90611371565b9190505550005b600080fd5b34801561013757600080fd5b5061014061037b565b60405161014d91906111f8565b60405180910390f35b34801561016257600080fd5b5061016b6103c5565b6040516101789190611196565b60405180910390f35b34801561018d57600080fd5b50610196610453565b6040516101a492919061115f565b60405180910390f35b3480156101b957600080fd5b506101d460048036038101906101cf9190610fcf565b610686565b005b3480156101e257600080fd5b506101eb610746565b6040516101f891906111f8565b60405180910390f35b34801561020d57600080fd5b5061021661074c565b6040516102239190611144565b60405180910390f35b34801561023857600080fd5b50610241610772565b005b34801561024f57600080fd5b50610258610896565b60405161026692919061115f565b60405180910390f35b34801561027b57600080fd5b50610284610ac9565b005b34801561029257600080fd5b5061029b610b51565b6040516102a89190611196565b60405180910390f35b3480156102bd57600080fd5b506102c6610bdf565b6040516102d39190611129565b60405180910390f35b3480156102e857600080fd5b506102f1610c08565b6040516102fe91906111f8565b60405180910390f35b61030f610c0e565b005b34801561031d57600080fd5b5061033860048036038101906103339190610fa6565b610d2a565b005b34801561034657600080fd5b5061034f610e22565b60405161035c9190611196565b60405180910390f35b600081836103739190611268565b905092915050565b6000600160003373ffffffffffffffffffffffffffffffffffffffff1673ffffffffffffffffffffffffffffffffffffffff16815260200190815260200160002080549050905090565b600280546103d29061133f565b80601f01602080910402602001604051908101604052809291908181526020018280546103fe9061133f565b801561044b5780601f106104205761010080835404028352916020019161044b565b820191906000526020600020905b81548152906001019060200180831161042e57829003601f168201915b505050505081565b606080600061046061037b565b90508067ffffffffffffffff8111156104a2577f4e487b7100000000000000000000000000000000000000000000000000000000600052604160045260246000fd5b6040519080825280602002602001820160405280156104d05781602001602082028036833780820191505090505b5092508067ffffffffffffffff811115610513577f4e487b7100000000000000000000000000000000000000000000000000000000600052604160045260246000fd5b6040519080825280602002602001820160405280156105415781602001602082028036833780820191505090505b50915060005b81811015610680576000600160003373ffffffffffffffffffffffffffffffffffffffff1673ffffffffffffffffffffffffffffffffffffffff16815260200190815260200160002082815481106105c8577f4e487b7100000000000000000000000000000000000000000000000000000000600052603260045260246000fd5b906000526020600020906002020190508060000154858381518110610616577f4e487b7100000000000000000000000000000000000000000000000000000000600052603260045260246000fd5b6020026020010181815250508060010154848381518110610660577f4e487b7100000000000000000000000000000000000000000000000000000000600052603260045260246000fd5b60200260200101818152505050808061067890611371565b915050610547565b50509091565b61068e610eb0565b73ffffffffffffffffffffffffffffffffffffffff166106ac610bdf565b73ffffffffffffffffffffffffffffffffffffffff1614610702576040517f08c379a00000000000000000000000000000000000000000000000000000000081526004016106f9906111d8565b60405180910390fd5b80600560006101000a81548173ffffffffffffffffffffffffffffffffffffffff021916908373ffffffffffffffffffffffffffffffffffffffff16021790555050565b60085481565b600560009054906101000a900473ffffffffffffffffffffffffffffffffffffffff1681565b61077a610eb0565b73ffffffffffffffffffffffffffffffffffffffff16610798610bdf565b73ffffffffffffffffffffffffffffffffffffffff16146107ee576040517f08c379a00000000000000000000000000000000000000000000000000000000081526004016107e5906111d8565b60405180910390fd5b6000479050600560009054906101000a900473ffffffffffffffffffffffffffffffffffffffff1673ffffffffffffffffffffffffffffffffffffffff166108fc829081150290604051600060405180830381858888f1935050505015801561085b573d6000803e3d6000fd5b507f5b6b431d4476a211bb7d41c20d1aab9ae2321deee0d20be3d9fc9b1093fa6e3d8160405161088b91906111f8565b60405180910390a150565b60608060006108a361037b565b90508067ffffffffffffffff8111156108e5577f4e487b7100000000000000000000000000000000000000000000000000000000600052604160045260246000fd5b6040519080825280602002602001820160405280156109135781602001602082028036833780820191505090505b5092508067ffffffffffffffff811115610956577f4e487b7100000000000000000000000000000000000000000000000000000000600052604160045260246000fd5b6040519080825280602002602001820160405280156109845781602001602082028036833780820191505090505b50915060005b81811015610ac3576000600160003373ffffffffffffffffffffffffffffffffffffffff1673ffffffffffffffffffffffffffffffffffffffff1681526020019081526020016000208281548110610a0b577f4e487b7100000000000000000000000000000000000000000000000000000000600052603260045260246000fd5b906000526020600020906002020190508060000154858381518110610a59577f4e487b7100000000000000000000000000000000000000000000000000000000600052603260045260246000fd5b6020026020010181815250508060010154848381518110610aa3577f4e487b7100000000000000000000000000000000000000000000000000000000600052603260045260246000fd5b602002602001018181525050508080610abb90611371565b91505061098a565b50509091565b610ad1610eb0565b73ffffffffffffffffffffffffffffffffffffffff16610aef610bdf565b73ffffffffffffffffffffffffffffffffffffffff1614610b45576040517f08c379a0000000000000000000000000000000000000000000000000000000008152600401610b3c906111d8565b60405180910390fd5b610b4f6000610eb8565b565b60048054610b5e9061133f565b80601f0160208091040260200160405190810160405280929190818152602001828054610b8a9061133f565b8015610bd75780601f10610bac57610100808354040283529160200191610bd7565b820191906000526020600020905b815481529060010190602001808311610bba57829003601f168201915b505050505081565b60008060009054906101000a900473ffffffffffffffffffffffffffffffffffffffff16905090565b60075481565b60006040518060400160405280348152602001428152509050600160003373ffffffffffffffffffffffffffffffffffffffff1673ffffffffffffffffffffffffffffffffffffffff16815260200190815260200160002081908060018154018082558091505060019003906000526020600020906002020160009091909190915060008201518160000155602082015181600101555050610cbb3460075461036590919063ffffffff16565b60078190555060086000815480929190610cd490611371565b91905055503373ffffffffffffffffffffffffffffffffffffffff167f264f630d9efa0d07053a31163641d9fcc0adafc9d9e76f1c37c2ce3a558d2c5234604051610d1f91906111f8565b60405180910390a250565b610d32610eb0565b73ffffffffffffffffffffffffffffffffffffffff16610d50610bdf565b73ffffffffffffffffffffffffffffffffffffffff1614610da6576040517f08c379a0000000000000000000000000000000000000000000000000000000008152600401610d9d906111d8565b60405180910390fd5b600073ffffffffffffffffffffffffffffffffffffffff168173ffffffffffffffffffffffffffffffffffffffff161415610e16576040517f08c379a0000000000000000000000000000000000000000000000000000000008152600401610e0d906111b8565b60405180910390fd5b610e1f81610eb8565b50565b60038054610e2f9061133f565b80601f0160208091040260200160405190810160405280929190818152602001828054610e5b9061133f565b8015610ea85780601f10610e7d57610100808354040283529160200191610ea8565b820191906000526020600020905b815481529060010190602001808311610e8b57829003601f168201915b505050505081565b600033905090565b60008060009054906101000a900473ffffffffffffffffffffffffffffffffffffffff169050816000806101000a81548173ffffffffffffffffffffffffffffffffffffffff021916908373ffffffffffffffffffffffffffffffffffffffff1602179055508173ffffffffffffffffffffffffffffffffffffffff168173ffffffffffffffffffffffffffffffffffffffff167f8be0079c531659141344cd1fd0a4f28419497f9722a3daafe3b4186f6b6457e060405160405180910390a35050565b600081359050610f8b816114a1565b92915050565b600081359050610fa0816114b8565b92915050565b600060208284031215610fb857600080fd5b6000610fc684828501610f7c565b91505092915050565b600060208284031215610fe157600080fd5b6000610fef84828501610f91565b91505092915050565b6000611004838361110b565b60208301905092915050565b611019816112d0565b82525050565b611028816112be565b82525050565b600061103982611223565b6110438185611246565b935061104e83611213565b8060005b8381101561107f5781516110668882610ff8565b975061107183611239565b925050600181019050611052565b5085935050505092915050565b60006110978261122e565b6110a18185611257565b93506110b181856020860161130c565b6110ba81611418565b840191505092915050565b60006110d2602683611257565b91506110dd82611429565b604082019050919050565b60006110f5602083611257565b915061110082611478565b602082019050919050565b61111481611302565b82525050565b61112381611302565b82525050565b600060208201905061113e600083018461101f565b92915050565b60006020820190506111596000830184611010565b92915050565b60006040820190508181036000830152611179818561102e565b9050818103602083015261118d818461102e565b90509392505050565b600060208201905081810360008301526111b0818461108c565b905092915050565b600060208201905081810360008301526111d1816110c5565b9050919050565b600060208201905081810360008301526111f1816110e8565b9050919050565b600060208201905061120d600083018461111a565b92915050565b6000819050602082019050919050565b600081519050919050565b600081519050919050565b6000602082019050919050565b600082825260208201905092915050565b600082825260208201905092915050565b600061127382611302565b915061127e83611302565b9250827fffffffffffffffffffffffffffffffffffffffffffffffffffffffffffffffff038211156112b3576112b26113ba565b5b828201905092915050565b60006112c9826112e2565b9050919050565b60006112db826112e2565b9050919050565b600073ffffffffffffffffffffffffffffffffffffffff82169050919050565b6000819050919050565b60005b8381101561132a57808201518184015260208101905061130f565b83811115611339576000848401525b50505050565b6000600282049050600182168061135757607f821691505b6020821081141561136b5761136a6113e9565b5b50919050565b600061137c82611302565b91507fffffffffffffffffffffffffffffffffffffffffffffffffffffffffffffffff8214156113af576113ae6113ba565b5b600182019050919050565b7f4e487b7100000000000000000000000000000000000000000000000000000000600052601160045260246000fd5b7f4e487b7100000000000000000000000000000000000000000000000000000000600052602260045260246000fd5b6000601f19601f8301169050919050565b7f4f776e61626c653a206e6577206f776e657220697320746865207a65726f206160008201527f6464726573730000000000000000000000000000000000000000000000000000602082015250565b7f4f776e61626c653a2063616c6c6572206973206e6f7420746865206f776e6572600082015250565b6114aa816112be565b81146114b557600080fd5b50565b6114c1816112d0565b81146114cc57600080fd5b5056fea2646970667358221220a94b76d023767ed21a0d3de0db123b78ca2d2322432d40288cb66b36ad2fc9ca64736f6c63430008040033a264697066735822122040dcae4e625c488aa8dc0c8f636ad4fd9f5b1036c251afbb2ea4c71bb7a56bee64736f6c63430008040033",
  "linkReferences": {},
  "deployedLinkReferences": {}
}